:10001E002020202051696E675469616E20202020B7
:10002E0000202059694C755869616E6742656920D8
:10003E0020005A68694475616E51696E6743686144
:10004E006E6700202048617070794269727468642E
:10005E00617920002020202054776F5469676572E3
:10006E00732020200020204C6974746C652053741A
:10007E00617220202000202020436F756E74204472
:10008E006F776E20202020253264207365636F6E9B
:10009E0064206C656674200020204E6F7720506CB3
:1000AE006179696E67202020257300456C65637445
:1000BE00726F6E6963205069616E6F202020202060
:1000CE0047726F75702033202020200020202020C2
:1000DE004B657920446F776E202020202020202031
:1000EE004B6579203D202532642020202000456C70
:1000FE00656374726F6E6963205069616E6F202044
:10010E00202050617573696E67202020202000C06A
:10011E00F9A4B0999282F880908883C6A1868E0247
:10012E000B024B029302BA0310037003DC04170494
:10013E009705270575062006E007B801060126017A
:10014E004A015D018801B801EE012CFC92FCF2FD22
:10015E0047FD6EFDB6FDF6FE2FFE4AFE79FEA4FEAD
:10016E00B8FEDBFEFBFF18F926F9E5FA90FADCFB88
:10017E006CFBECFC5EFA05010105050606050404A0
:10018E00030302020105050404030302050504042A
:10019E00030302010105050606050404030302021A
:1001AE0001FF040404040404080404040404040801
:1001BE0004040404040408040404040404080404E9
:1001CE0004040404080404040404040801020301E2
:1001DE0001020301030405030405050605040301DA
:1001EE00050605040301010501010501FF040404D0
:1001FE0004040404040404080404080301030104B1
:10020E00040301030104040404080404080505069C
:10021E000508071605050605090805050C0A080751
:10022E00060B0B0A080908FF020204040404040268
:10023E000204040408020204040404080202040472
:10024E000408130303030203010202020102050163
:10025E000101140114130202020314130404040313
:10026E00040102020201020501010114011403023C
:10027E000201011616160101020303031603020101
:10028E0015060516050607080303160807080703D3
:10029E0005050608050616060504050302011401E8
:1002AE0003020201020501020516161601010203E0
:1002BE0003020316030201050503051605060708CA
:1002CE0008080808070607060305050506080506BB
:1002DE0016060504050302010601030202010201CE
:1002EE001401161614010302021602010201011670
:1002FE00140101FF080202020202050202020202BA
:10030E0005020202020204020202020202040202B8
:10031E0002020405020202020205020202020205A4
:10032E000202020208040402020202040202020293
:10033E00020204020202020202040202020202028B
:10034E000402050202020402020202020204020573
:10035E00010102020202020402101004040202024F
:10036E00020202020202020202020202020202025F
:10037E00020202020202020202020402040202024B
:10038E00040202020202020402050101020202023A
:10039E000204010C04020101020208020101020220
:1003AE000802020C101616040403020102030316BF
:1003BE0016161604040302010201011601020505B8
:1003CE0001060505030501060505030302020605E0
:1003DE000503030202161616160404030201020395
:1003EE000316161616040403020102010116010378
:1003FE000707081608080908070708160808090855
:10040E00090A091608080908090A0B0A091605053A
:10041E00090908080A0A090706060505160505084A
:10042E000804160807070809090A0A160505090926
:10043E0008080A0A0907060605050309090816052C
:10044E000506010104030201010116050509011645
:10045E00050506010104030201FF04020202020265
:10046E000202020404040402020202020202020454
:10047E000202020204040202020204040202020246
:10048E000202040202020203010404040402020234
:10049E000202020202040404040202020202020325
:1004AE00010402020202020202020202020202021D
:1004BE00020202020202020202020202020202020E
:1004CE0002020202020203010202020202020301FE
:1004DE0004020202020202020202020202030104EA
:1004EE0002020202030102020202020202020201DF
:1004FE0001010302020201010301020203010C08C1
:10050E00020202020A0202020203010202040803AC
:10051E000303030203020113010203040302010297
:10052E000303030302030201150101010115010179
:10053E000101010115010101010101150101010175
:10054E000101050505160505050505050505050544
:10055E00050504030303150101010114150105042A
:10056E000301010116010101010301141501050426
:10057E00030102021616030204030301050708070E
:10058E00050101010106061606050505050403020F
:10059E0003040303030405030304050709070808FE
:1005AE0008160808050506050404020304050601DD
:1005BE0006070703020403030105070807050101E7
:1005CE0001010606160605050505040302030403CC
:1005DE0003030405030304050709070808081608A2
:1005EE0008050506050414150102030202030101A4
:1005FE00FF040404040202040804040404040404B2
:10060E0002020404040402020406020202020202AE
:10061E0004020202020202040202020202020402A6
:10062E000202020202040202020202020402020298
:10063E000202020202021008020202020404040470
:10064E00040404040808020202020404040404045C
:10065E000404040410080804040404040404040438
:10066E000402020404040404040404040404040440
:10067E000404040404100404040404040404040420
:10068E00040408040404040404020204040404041C
:10069E00040406020804040404040404040404020A
:1006AE0002040404040404040404040404040404FE
:1006BE0004040410040404040404040404040404E0
:1006CE0008040404040404040404040404040408D4
:1006DE000404FF001EFF002FFF0040FF0051FF002B
:0406EE0062FF007334
:10108C00C109015F01C18BC10C0125FF01280002C0
:05109C002B03E8C10A6E
:100FCB00AF5F120DBBE4F564F566F567F568F5697F
:070FDB00F56AF56B7F64FE6F
:100FE200EF1F70011E144E600BE4FDEDC3947D50A3
:040FF200EF0D80F788
:010FF60022D8
:100F6B00C284C285C286C287308009308106308236
:100F7B00032083197F0A7E00120FE2308009308133
:100F8B00063082032083037F01227F00227F002211
:100F9B00C284C285C286C28730802230811F3082D4
:100FAB001C3083197F0A7E00120FE230800C3081D7
:100FBB00093082063083037F01227F00227F0022CB
:100E4000E4FC120F6BEF64017072C284D285D2860B
:100E5000D2872080010C2081027C052082027C093F
:100E60002083027C0DD284C285D286D28720800264
:100E70007C022081027C062082027C0A2083027C84
:100E80000ED284D285C286D2872080027C03208144
:100E9000027C072082027C0B2083027C0FD284D24A
:100EA00085D286C2872080027C042081027C0820B3
:0E0EB00082027C0C2083027C10AF04227F00A3
:010EBE002211
:100DBB00EF14606E14605814604214602C146016AB
:100DCB001470717560FF7561017562857522FF7511
:100DDB0023017524B0227560FF7561017562DA75A8
:100DEB0022FF7523017524FB227560FF7561027567
:100DFB00621B7522FF752302752436227560FF7501
:100E0B0061027562507522FF7523037524022275EA
:100E1B0060FF7561037562B37522FF75230475243A
:100E2B0068227560FF75610575621D7522FF75235C
:050E3B00057524FF22F3
:03000B000210A23E
:1010A20085258C85288AD20C300B03B2B732D2B791
:0110B200320B
:10106C00756FFF7570007571847572008F737B00DE
:10107C007A00792D12074E7B007A00792D020FF73A
:03001B0002104789
:10104700C0E085268D85298BE52C152C7002152B84
:10105700C209E52C452B700AC28ED209D20BD28C5D
:05106700D20AD0E032C6
:100EBF00E55F14F563756FFF7570007571A675F0BA
:100ECF0003A424E0F582E43406F583E493FB740174
:100EDF0093FA7402938B728A73F5747B007A00799C
:0D0EEF002D12074E7B007A00792D020FF7BF
:100A4E00E4F566F567F568F569F56AF56BC20BD2E4
:100A5E00AF75891185258C85288AD2A9D2ABC28E15
:100A6E00D209D28C75A0FF120EFC7BFF7A0079B9E9
:100A7E00120FF77FB87E0B120FE2AF5F120DBB7530
:100A8E005F01120EBFD20B120F6BEF7003020B67DA
:100A9E00120E408F63E56360EEC209D3940D505879
:100AAE00EF25E02459F582E43401F583E493FC74D8
:100ABE000193FDECF5258D287526EC752978D28CE1
:100ACE00C28E752B03752CE8756FFF7570007571EE
:100ADE00DA7572008F737B007A00792D12074E7BC8
:100AEE00007A00792D120FF7D20B120F9BEF60FADE
:100AFE00C20BC28CD28E808FE563B40E1C120F9B7C
:100B0E00EF60FA7BFF7A0079FC120FF7B20B200B25
:100B1E0003020A95D209020BE1E563C3940F500359
:100B2E00020A95E563B40F14120F9BEF60FAE55FAE
:100B3E00B40605755F018016055F8012120F9BEFDC
:100B4E0060FAE55FB40105755F068002155F120F4E
:100B5E00CB120EBFD209020A95300A05120EBFC281
:100B6E000A308E37E52CB42009E52BB403047F043C
:100B7E008026E52CB45809E52BB402047F038018B7
:100B8E00E52CB49009E52BB401047F02800AE52C14
:100B9E0064C8452B70057F0112106C200903020AF0
:100BAE0095300CFDC20CE56745666003020C60AB28
:100BBE0060AA61A962856482F583120C8F14F565B3
:100BCE0064FE7015E55FB40605755F018002055F72
:100BDE00120FCB120EBF020A95E56525E02459F5DA
:100BEE0082E43401F583E493FC740193FDECF52566
:100BFE008D28AB22AA23A924856482758300120C4A
:100C0E008FFF7E00E56525E0242DF582E43401F5A5
:100C1E0083E493FC740193FD120CBCEF7802CEC3F7
:100C2E0013CE13D8F9F5698E687802CEC313CE139E
:100C3E00D8F9FFC3E5699FF56BE5689EF56AD20B9F
:100C4E00E565B41502C20B0567E56770020566021D
:100C5E000A95C3E5679569E5669568400AE4F56609
:100C6E00F5670564020A950567E567700205666516
:100C7E006B7004E566656A6003020A95C20B020A90
:010C8E0095D0
:0410B3007FE87E0351
:0B10B700EF1FAC0670011E4C70F6220B
:100F3700D200AB6CAA6DA96E8D82758300120C8FDF
:020F4700F56F44
:100F49007F0A7E001210B7A20092A4C2A5856F90F5
:100F5900D2A67F0A7E001210B7C2A67F0A7E0002BF
:020F690010B7BF
:100EFC00C200756F01120F491210B3C200756F3822
:100F0C00120F491210B3C200756F06120F4912105E
:100F1C00B3C200756F0C120F491210B3C200756F7B
:0B0F2C0001120F497FE87E030210B79E
:060FF7008B6C8A6D896E0F
:100FFD00C200756F80120F49E4FD120F370DBD1041
:10100D00F9C200756FC0120F497D10120F370DBD5B
:02101D0020F9B8
:01101F0022AE
:03000000020D2FBF
:0C0D2F00787FE4F6D8FD75817F020D7618
:100C8F00BB010CE58229F582E5833AF583E022501A
:100C9F0006E92582F8E622BBFE06E92582F8E22264
:0D0CAF00E58229F582E5833AF583E493227E
:100CBC00EF8DF0A4A8F0CF8CF0A428CE8DF0A42E4C
:020CCC00FE2206
:1006F200E57B246FF8E6057B22786C300702786F81
:10070200E475F001120CF9020CCE2000EB7F2ED220
:10071200008018EF540F2490D43440D4FF30040BDF
:10072200EF24BFB41A0050032461FFE57C60021578
:100732007C057FE57F7002057E30070D786CE475DD
:10074200F001120CF9EF020CE70210207403D20739
:100752008003E4C207F57B8B6C8A6D896EE4F57CBD
:10076200F57EF57FE57C60077F2012072D80F57509
:100772007DFFC201C200C202C203C205C206C20894
:100782001206FBFF700D3007057F0012073EAF7F98
:10079200AE7E22B4255FC2D5C2041206FBFF24D06E
:1007A200B40A00501A75F00A787C30D50508B6FFF5
:1007B2000106C6A426F620D5047002D20380D924ED
:1007C200CFB41A00EF5004C2E5D20402093ED201AE
:1007D20080C6D20080C0D20280BCD2D580BAD205F7
:1007E20080B47F2012072D2002077401B57C0040DF
:1007F200F11206F2FF12072D020766D208D2068016
:10080200951206F2FB1206F2FA1206F2F94A4B7040
:1008120006790F7A0A7BFF20022EE57C602A7E0091
:100822008E82758300120C8F60060EEE657D70F06D
:10083200C2D5EBC0E0EAC0E0E9C0E0EE120985D023
:10084200E0F9D0E0FAD0E0FB120CCEFF60AAEBC0D8
:10085200E0EAC0E0E9C0E012072DD0E02401F9D0BF
:10086200E03400FAD0E0FBE57D0460DCD57DD98080
:10087200877BFF7A097981D202809C791080027984
:1008820008C206C2088008D2D5790A8004790AC251
:10089200D5E57D047002F57DE4FAFDFEFF1206F255
:1008A200FC7B082001131206F2FD7B1030000A12B5
:1008B20006F2FE1206F2FF7B20EC3382D592D5506F
:1008C20013C3E43000069FFFE49EFEE42001039D73
:1008D200FDE49CFCE4CBF8C201EC700CCFCECDCC95
:1008E200E824F8F870F38017C3EF33FFEE33FEED20
:1008F20033FDEC33FCEB33FB994002FB0FD8E9EB01
:10090200300105F8D0E0C448B201C0E00AEC4D4E17
:100912004F78207B0070C2EAB57D0040BCC0E01277
:100922000987D0F0D0E0200104C4C0E0C4B201C005
:10093200F0120716D0F0D5F0EB020766120D090887
:100942000353087D5807D44C07D04208814F0889C9
:0F0952004408894907E943088F5508734608731D
:10096100450873470A2F5007D82D07DC2E07FF2BA8
:1009710007E02307FD200A182A079848000007F717
:100981003F3F3F00790AA2D5200314300509B91071
:10099100020404B9080104A2D52006025001042072
:1009A10002689202B57C005034C0E07F2030031908
:1009B1007F30A20272067205500F1209DEC202C216
:1009C10006C205C2087F30800F300503E9C0E0127E
:1009D100072D300503D0E0F9D0E0B57CCC30051708
:1009E1007F30B9100C12072D7F583004077F7880B3
:1009F10003B9080312072D3002057F2D02072D7F51
:100A0100202008F87F2B2006F322920280CF286E47
:100A1100756C6C2900D2011206F23001F8C201781E
:100A21007C30D50108F60207982D5043495812062B
:100A3100F22403B405004001E4900A2A9312071E30
:0D0A4100743A12071ED203757C0402087D72
:100D3B00020A4EE493A3F8E493A34003F68001F276
:100D4B0008DFF48029E493A3F85407240CC8C333B9
:100D5B00C4540F4420C8834004F456800146F6DF88
:100D6B00E4800B010204081020408090108CE47E7C
:100D7B00019360BCA3FF543F30E509541FFEE4937D
:100D8B00A360010ECF54C025E060A840B8E493A344
:100D9B00FAE493A3F8E493A3C8C582C8CAC583CA6F
:100DAB00F0A3C8C582C8CAC583CADFE9DEE780BE27
:0110A100004E
:100CCE00BB010689828A83E0225002E722BBFE0224
:090CDE00E32289828A83E4932257
:100CE700BB010689828A83F0225002F722BBFE01EC
:020CF700F322E6
:100CF900FAE6FB0808E6F925F0F618E6CA3AF622FC
:100D0900D083D082F8E4937012740193700DA3A379
:100D190093F8740193F5828883E47374029368608D
:060D2900EFA3A3A380DF8D
:10102000EFB40A07740D12102B740A309811A899A6
:10103000B8130CC2983098FDA899C298B811F63030
:0710400099FDC299F5992208
:00000001FF
